:020000040800F2
:100000000050002021030008C5020008CB020008B0
:10001000D1020008D7020008DD020008000000003D
:10002000000000000000000000000000E3020008E3
:10003000EF02000800000000FB02000807030008B0
:1000400069030008690300086903000869030008E0
:1000500069030008690300086903000869030008D0
:1000600069030008690300086903000869030008C0
:1000700069030008690300086903000869030008B0
:1000800069030008690300086903000869030008A0
:100090006903000869030008690300086903000890
:1000A0006903000869030008690300086903000880
:1000B0006903000869030008690300086903000870
:1000C0006903000869030008690300086903000860
:1000D0006903000869030008690300086903000850
:1000E00069030008690300086903000800000000B4
:1000F0000000000000000000000000000000000000
:0C01000000000000000000005FF808F1A3
:1001100010B5054C237833B9044B13B10448AFF341
:1001200000800123237010BD0400002000000000A7
:10013000D803000808B5034B1BB103490348AFF3CC
:10014000008008BD0000000008000020D80300085F
:100150004A0011D212F5001211D20DD56FF4787346
:10016000B3EB62520ED44FEAC12343F0004343EA9B
:10017000505323FA02F070474FF00000704750EAE6
:10018000013002D14FF0FF3070474FF00000704750
:1001900080B400AF064B9B69054A43F0100393619E
:1001A000044B4FF440725A6000BFBD4680BC70479C
:1001B000001002400010014080B400AF034B4FF428
:1001C0000052DA6000BFBD4680BC7047001001409D
:1001D00080B400AF044BDB68034A23F40053D360C0
:1001E00000BFBD4680BC7047001001400000000009
:1001F00090B585B000AFFFF7CBFF2F4B9B692E4A20
:1002000043F0040393612C4B9B692B4A43F0010399
:100210009361294B9B69284A43F001039361274B63
:100220005B68264A43F0B0035360244B5B68234A63
:1002300043F480635360224BDB68214A43F400534C
:10024000D3601F4BDB681E4A43F00803D3601C4B8E
:10025000DB681B4A43F00403D36015A3D3E90023F2
:10026000C7E90223164CD7E90201FFF771FF0346E5
:10027000A360134B5B68FB7100BF114B1B6803F05D
:100280002003002BF9D0FB79772B0CD1FFF794FFDB
:100290000B4B4D225A6000BF094B1B6803F08003D3
:1002A000002BF9D0E8E7FFF793FFE5E7AFF3008015
:1002B0000000000000088A400010024000080140D1
:1002C0000038014080B400AFFEE780B400AFFEE725
:1002D00080B400AFFEE780B400AFFEE780B400AFAB
:1002E000FEE780B400AF00BFBD4680BC704780B45D
:1002F00000AF00BFBD4680BC704780B400AF00BFF8
:10030000BD4680BC704780B500AF00F02FF800BF3D
:1003100080BD80B400AF00BFBD4680BC7047000008
:100320000C480D490D4A002302E0D458C450043350
:10033000C4188C42F9D30A4A0A4C002301E0136026
:100340000432A242FBD3FFF7E4FF00F021F8FFF7ED
:100350004FFF70470000002004000020F803000851
:100360000400002024000020FEE7000080B400AF5D
:10037000054B1B781A46054B1B681344034A136050
:1003800000BFBD4680BC7047000000202000002058
:1003900070B500260C4D0D4C641BA410A64209D16B
:1003A00000F01AF800260A4D0A4C641BA410A6425D
:1003B00005D170BD55F8043B98470136EEE755F876
:1003C000043B98470136F2E7F0030008F003000809
:1003D000F0030008F4030008F8B500BFF8BC08BC3F
:1003E0009E467047F8B500BFF8BC08BC9E467047F3
:0403F00035010008CB
:0403F40011010008EB
:0403F8000100000000
:0400000508000321CB
:00000001FF
