:020000040800F2
:100000000050002075030008190300081F030008B2
:10001000250300082B03000831030008000000003E
:10002000000000000000000000000000370300088E
:1000300043030008000000004F0300085B030008B2
:10004000BD030008BD030008BD030008BD03000890
:10005000BD030008BD030008BD030008BD03000880
:10006000BD030008BD030008BD030008BD03000870
:10007000BD030008BD030008BD030008BD03000860
:10008000BD030008BD030008BD030008BD03000850
:10009000BD030008BD030008BD030008BD03000840
:1000A000BD030008BD030008BD030008BD03000830
:1000B000BD030008BD030008BD030008BD03000820
:1000C000BD030008BD030008BD030008BD03000810
:1000D000BD030008BD030008BD030008BD03000800
:1000E000BD030008BD030008BD03000800000000B8
:1000F0000000000000000000000000000000000000
:0C01000000000000000000005FF808F1A3
:1001100010B5054C237833B9044B13B10448AFF341
:1001200000800123237010BD0400002000000000A7
:100130002C04000808B5034B1BB103490348AFF377
:10014000008008BD00000000080000202C0400080A
:100150004A0011D212F5001211D20DD56FF4787346
:10016000B3EB62520ED44FEAC12343F0004343EA9B
:10017000505323FA02F070474FF00000704750EAE6
:10018000013002D14FF0FF3070474FF00000704750
:1001900080B400AF064B9B69054A43F0100393619E
:1001A000044B4FF440725A6000BFBD4680BC70479C
:1001B000001002400010014080B400AF034B4FF428
:1001C0000052DA6000BFBD4680BC7047001001409D
:1001D00080B400AF044BDB68034A23F40053D360C0
:1001E00000BFBD4680BC7047001001400000000009
:1001F00090B585B000AFFFF7CBFF294B9B69284A2C
:1002000043F480439361264B9B69254A43F00403E2
:100210009361234B9B69224A43F001039361214B75
:10022000B0225A601F4B4FF480625A601E4BDB684D
:100230001D4A43F40053D3601B4BDB681A4A43F05A
:100240000403D360184BDB68174A43F00803D360FC
:1002500011A3D3E90023C7E90223134CD7E9020114
:10026000FFF776FF0346A3600F4B5B68FB7100BF8F
:100270000D4B1B6803F02003002BF9D0FB79772B83
:1002800005D1FFF799FF094800F02AF8EFE7FFF7DB
:100290009FFFECE7AFF300800000000000088A40F9
:1002A00000100240000801400038014044040008EA
:1002B00080B483B000AF0346FB71084AFB795360FA
:1002C00000BF064B1B6803F08003002BF9D000BF72
:1002D00000BF0C37BD4680BC704700BF00380140EE
:1002E00080B584B000AF78600023FB6009E0FB6854
:1002F0007A6813441B781846FFF7DAFFFB6801336E
:10030000FB60FB687A6813441B78002BEFD100BFB9
:1003100000BF1037BD4680BD80B400AFFEE780B49B
:1003200000AFFEE780B400AFFEE780B400AFFEE7A9
:1003300080B400AFFEE780B400AF00BFBD4680BC14
:10034000704780B400AF00BFBD4680BC704780B42A
:1003500000AF00BFBD4680BC704780B500AF00F065
:100360002FF800BF80BD80B400AF00BFBD4680BC89
:10037000704700000C480D490D4A002302E0D45894
:10038000C4500433C4188C42F9D30A4A0A4C0023DF
:1003900001E013600432A242FBD3FFF7E4FF00F058
:1003A00021F8FFF725FF704700000020040000201F
:1003B000580400080400002024000020FEE700008C
:1003C00080B400AF054B1B781A46054B1B681344DD
:1003D000034A136000BFBD4680BC70470000002088
:1003E0002000002070B500260C4D0D4C641BA4109D
:1003F000A64209D100F01AF800260A4D0A4C641BE7
:10040000A410A64205D170BD55F8043B98470136AB
:10041000EEE755F8043B98470136F2E75004000830
:10042000500400085004000854040008F8B500BF48
:10043000F8BC08BC9E467047F8B500BFF8BC08BCC5
:040440009E4670471D
:0C0444004C4544204953204F4E0000005E
:04045000350100086A
:04045400110100088A
:04045800010000009F
:040000050800037577
:00000001FF
