:020000040800F2
:1000000000500020FD120008610800086708000881
:100010006D08000873080008790800080000000057
:10002000000000000000000000000000A106000821
:100030007F08000800000000A1070008E907000889
:100040004513000845130008451300084513000830
:100050004513000845130008451300084513000820
:100060004513000845130008451300084513000810
:100070004513000845130008451300084513000800
:1000800045130008451300084513000845130008F0
:1000900045130008451300084513000845130008E0
:1000A00045130008451300084513000845130008D0
:1000B00045130008451300084513000845130008C0
:1000C00045130008451300084513000845130008B0
:1000D00045130008451300084513000845130008A0
:1000E00045130008451300084513000800000000F0
:1000F0000000000000000000000000000000000000
:0C01000000000000000000005FF808F1A3
:1001100010B5054C237833B9044B13B10448AFF341
:1001200000800123237010BD0800002000000000A3
:10013000A013000808B5034B1BB103490348AFF3F4
:10014000008008BD000000000C000020A013000883
:1001500080B586B000AF78600023FB6000F058FDEA
:100160004C4B1B68002B01D100F0E0F84A4B1A6899
:100170007B681340002B40F086807B68002B1ED0EC
:1001800008227B6813447A689A4218D208227B6856
:1001900013447B607B6803F00703002B11D07B685E
:1001A00023F0070308337A689A4205D27B6823F06C
:1001B000070308337B6004E000237B6001E0002339
:1001C0007B607B68002B5ED0344B1B687A689A4258
:1001D00059D8334B3B61324B1B687B6104E07B6930
:1001E0003B617B691B687B617B695B687A689A42CB
:1001F00003D97B691B68002BF1D1264B1B687A69F8
:100200009A4240D03B691B6808221344FB607B691B
:100210001A683B691A607B695A687B68D21A08239E
:100220005B009A420FD97A697B681344BB607B6993
:100230005A687B68D21ABB685A607B697A685A60D0
:10024000B86800F0D5F8154B1A687B695B68D31A5B
:10025000124A1360114B1A68124B1B689A4203D260
:100260000E4B1B680F4A13607B695A680A4B1B6868
:100270001A437B695A607B6900221A600A4B1B682B
:100280000133094A136000F0D1FCFB6818461837A7
:10029000BD4680BD2C2800204028002030280020AA
:1002A00024280020342800203828002080B584B07D
:1002B00000AF78607B68FB607B68002B2CD0082344
:1002C0005B42FA681344FB60FB68BB60BB685A681A
:1002D000134B1B681340002B1ED0BB681B68002B00
:1002E0001AD1BB685A680E4B1B68DB431A40BB68C7
:1002F0005A6000F08DFCBB685A680A4B1B681344B7
:10030000084A1360B86800F073F8074B1B680133A4
:10031000054A136000F08AFC00BF1037BD4680BD5F
:1003200040280020302800203C28002080B485B0E0
:1003300000AF4FF42053BB60274BFB60FB6803F01A
:100340000703002B0CD0FB680733FB60FB6823F02E
:100350000703FB60BA68FB68D31A1F4A1344BB60EB
:10036000FB687B601D4A7B6813601C4B00225A604F
:100370007B68BA681344FB600822FB689B1AFB6029
:10038000FB6823F00703FB60FB68154A1360144BFE
:100390001B6800225A60124B1B6800221A607B689F
:1003A0003B603B68FA68D21A3B685A600C4B1A688B
:1003B0003B681A603B685B680A4A13603B685B688D
:1003C000094A1360094B4FF000421A6000BF14370E
:1003D000BD4680BC704700BF2400002024280020B8
:1003E0002C2800203428002030280020402800201D
:1003F00080B485B000AF7860274BFB6002E0FB68FB
:100400001B68FB60FB681B687A689A42F7D8FB6838
:10041000BB60FB685B68BA6813447A689A4208D18B
:10042000FB685A687B685B681A44FB685A60FB6823
:100430007B607B68BB607B685B68BA681A44FB685A
:100440001B689A4218D1FB681A68144B1B689A42C1
:100450000DD07B685A68FB681B685B681A447B6830
:100460005A60FB681B681A687B681A6008E00B4BCF
:100470001A687B681A6003E0FB681A687B681A6078
:10048000FA687B689A4202D0FB687A681A6000BFFB
:100490001437BD4680BC7047242800202C2800203B
:1004A00080B483B000AF78607B6803F108027B689A
:1004B0005A607B684FF0FF329A607B6803F1080254
:1004C0007B68DA607B6803F108027B681A617B68ED
:1004D00000221A6000BF0C37BD4680BC704780B454
:1004E00083B000AF78607B6800221A6100BF0C37D0
:1004F000BD4680BC704780B485B000AF786039607D
:100500003B681B68BB60BB68B3F1FF3F03D17B68EE
:100510001B69FB600CE07B680833FB6002E0FB6852
:100520005B68FB60FB685B681B68BA689A42F6D23E
:10053000FB685A683B685A603B685B683A689A6037
:100540003B68FA689A60FB683A685A603B687A6868
:100550001A617B681B685A1C7B681A6000BF1437DD
:10056000BD4680BC704780B485B000AF78607B68C2
:100570001B69FB607B685B687A6892689A607B683D
:100580009B687A6852685A60FB685B687A689A422E
:1005900003D17B689A68FB685A607B6800221A6105
:1005A000FB681B685A1EFB681A60FB681B681846CC
:1005B0001437BD4680BC704780B582B000AF78600C
:1005C000074B04229A61074B30221A60054BDB6807
:1005D000044A83F00203D360C82000F0B9FAF5E7BB
:1005E000001002400008014080B582B002AF002335
:1005F00001930123009300234FF4967203490448AA
:1006000000F049F900F0C8FAFEE700BFB81300088F
:10061000B905000880B485B000AFF860B9607A60B1
:10062000FB68043BFB60FB684FF080721A60FB685C
:10063000043BFB60BB6823F00102FB681A60FB68A7
:10064000043BFB60084AFB681A60FB68143BFB60D4
:100650007A68FB681A60FB68203BFB60FB68184601
:100660001437BD4680BC70476D06000880B483B067
:1006700000AF00233B604FF0BF0383F31188BFF34B
:100680006F8FBFF34F8F7B6000BF00BF3B68002BB5
:10069000FCD000BF00BF0C37BD4680BC70470000D7
:1006A000074B19680868B0E8F00F80F30988BFF3BA
:1006B0006F8F4FF0000080F311884EF00D0E7047E1
:1006C0004428002000BF00BF06480068006880F38F
:1006D000088862B661B6BFF34F8FBFF36F8F00DF3C
:1006E00000BF000008ED00E000BF00BF80B500AF14
:1006F0000C4B1B680B4A43F47F031360094B1B68C8
:10070000084A43F07F43136000F090F8064B002244
:100710001A60FFF7D9FF00F07BFCFFF7A7FF00236B
:10072000184680BD20ED00E00000002080B483B0BA
:1007300000AF4FF0BF0383F31188BFF36F8FBFF398
:100740004F8F7B6000BF054B1B680133034A13606A
:1007500000BF0C37BD4680BC704700BF00000020C2
:1007600080B483B000AF0A4B1B68013B084A13609A
:10077000074B1B68002B05D100237B607B6883F34C
:10078000118800BF00BF0C37BD4680BC704700BF5A
:100790000000002000000000000000000000000039
:1007A000EFF30980BFF36F8F0D4B1A6820E9F00F4C
:1007B00010602DE908404FF0BF0080F3118800F071
:1007C00027FC4FF0000080F31188BDE8084019684D
:1007D0000868B0E8F00F80F30988BFF36F8F7047A7
:1007E0004428002000BF00BF80B582B000AF4FF0AA
:1007F000BF0383F31188BFF36F8FBFF34F8F7B600D
:1008000000BF00F0FFFA0346002B03D0064B4FF069
:1008100080521A6000233B603B6883F3118800BF5D
:1008200000BF0837BD4680BD04ED00E080B400AFD6
:10083000084B00221A60084B00221A60074B41F651
:100840003F721A60034B07221A6000BFBD4680BC8E
:10085000704700BF10E000E018E000E014E000E0A6
:1008600080B400AFFEE780B400AFFEE780B400AF15
:10087000FEE780B400AFFEE780B400AFFEE780B4CF
:1008800000AF00BFBD4680BC704780B400AF00BF62
:10089000BD4680BC704780B58CB004AFF860B960CD
:1008A0003B601346FB80FB889B001846FFF750FC1B
:1008B00078617B69002B0ED05C20FFF749FCF86162
:1008C000FB69002B03D0FB697A691A6305E078693C
:1008D000FFF7ECFC01E00023FB61FB69002B13D068
:1008E000FA8800230393FB690293FB6A0193BB6AB6
:1008F00000933B68B968F86800F00EF8F86900F0FA
:1009000091F80123BB6102E04FF0FF33BB61BB698B
:1009100018462037BD4680BD80B586B000AFF86070
:10092000B9607A603B60BB6A186B7B689B001A46B3
:10093000A52100F02DFDBB6A1A6B7B6803F1804393
:10094000013B9B0013443B613B6923F007033B6180
:10095000BB68002B1FD000237B6112E0BA687B6963
:1009600013441978BA6A7B69134434330A461A70FF
:10097000BA687B6913441B78002B06D07B6901336E
:100980007B617B690F2BE9D900E000BFBB6A0022C5
:1009900083F8432003E0BB6A002283F834203B6ADB
:1009A000052B01D905233B62BB6A3A6ADA62BB6A4E
:1009B0003A6ADA64BB6A00221A65BB6A04331846D5
:1009C000FFF78DFDBB6A18331846FFF788FDBB6A39
:1009D000BA6A1A613B6AC3F10602BB6A9A61BB6AD2
:1009E000BA6A5A62BB6A543304220021184600F0E6
:1009F000CFFCBB6A583301220021184600F0C8FC26
:100A00003A68F9683869FFF705FE0246BB6A1A6062
:100A10007B6A002B02D07B6ABA6A1A6000BF183763
:100A2000BD4680BD80B584B000AF7860FFF77EFE24
:100A3000404B1B6801333F4A13603F4B1B68002B40
:100A400009D13D4A7B6813603A4B1B68012B10D1DA
:100A500000F03CFB0DE0394B1B68002B09D1364BF5
:100A60001B68DA6A7B68DB6A9A4202D8324A7B6882
:100A70001360334B1B680133314A1360304B1A68E3
:100A80007B685A647B68DB6A01229A402D4B1B68A5
:100A900013432C4A13607B68DA6A2B4913469B0088
:100AA00013449B000B4404331B68FB607B68FA68AB
:100AB0009A60FB689A687B68DA60FB689B687A6872
:100AC00004325A607B681A1DFB689A607B68DA6A98
:100AD00013469B0013449B001B4A1A447B685A61CF
:100AE0007B68DA6A184913469B0013449B000B4449
:100AF0001B68591C144813469B0013449B00034475
:100B00001960FFF72DFE0D4B1B68002B0ED00A4B12
:100B10001B68DA6A7B68DB6A9A4207D20B4B4FF09C
:100B200080521A60BFF34F8FBFF36F8F00BF103733
:100B3000BD4680BD30290020442800203C290020EB
:100B40004C290020382900204828002004ED00E02E
:100B500080B584B000AF78600023FB607B68002B19
:100B600008D000F055F80021786800F047FB00F04D
:100B70005DF8F860FB68002B07D1064B4FF0805200
:100B80001A60BFF34F8FBFF36F8F00BF1037BD46A2
:100B900080BD00BF04ED00E080B584B002AF154B0E
:100BA00001930023009300234FF4967212491348D7
:100BB000FFF771FE78607B68012B15D14FF0BF0302
:100BC00083F31188BFF36F8FBFF34F8F3B6000BF7C
:100BD0000B4B4FF0FF321A600A4B01221A600A4B8E
:100BE00000221A60FFF782FD084B1B6800BF083720
:100BF000BD4680BD54290020C01300089D10000888
:100C0000502900203C290020342900200400002025
:100C100080B400AF044B1B680133034A136000BF6C
:100C2000BD4680BC704700BF5829002080B586B003
:100C300000AF00237B6100233B61FFF777FD684B2A
:100C40001B68013B664A1360654B1B68002B40F034
:100C5000C080644B1B68002B00F0BB808AE0624BB5
:100C6000DB68DB687B617B699B6ABB607B69DB69F6
:100C70007A69126A9A607B691B6A7A69D2695A60DA
:100C8000BB685A687B6918339A4203D17B691A6A38
:100C9000BB685A607B6900229A62BB681B685A1E57
:100CA000BB681A607B695B697B607B699B687A695A
:100CB000D2689A607B69DB687A6992685A607B685F
:100CC0005A687B6904339A4203D17B69DA687B688E
:100CD0005A607B6900225A617B681B685A1E7B68D8
:100CE0001A607B69DB6A01229A40404B1B68134300
:100CF0003E4A13607B69DA6A3D4913469B00134400
:100D00009B000B4404331B683B607B693A689A6024
:100D10003B689A687B69DA603B689B687A69043251
:100D20005A607B691A1D3B689A607B69DA6A1346D0
:100D30009B0013449B002E4A1A447B695A617B69CD
:100D4000DA6A2B4913469B0013449B000B441B6833
:100D5000591C274813469B0013449B000344196009
:100D60007B69DA6A234B1B68DB6A9A4202D3224B07
:100D700001221A601C4B1B68002B7FF470AF7B694B
:100D8000002B01D000F020FA1C4B1B68FB60FB68B5
:100D9000002B10D000F036F80346002B02D0164B83
:100DA00001221A60FB68013BFB60FB68002BF1D15C
:100DB000124B00221A60104B1B68002B09D0012334
:100DC0003B610F4B4FF080521A60BFF34F8FBFF360
:100DD0006F8FFFF7C5FC3B6918461837BD4680BDCD
:100DE0005829002030290020F02800203829002030
:100DF00048280020442800204429002040290020C1
:100E000004ED00E080B588B000AF0023FB61754BB6
:100E10001B68002B40F0DC80734B1B680133BB6107
:100E2000714ABB691360BB69002B10D16F4B1B6803
:100E30007B616F4B1B686D4A13606D4A7B69136061
:100E40006C4B1B6801336B4A136000F0BDF96A4BB1
:100E50001B68BA699A42C0F0A680644B1B681B6885
:100E6000002B04D1644B4FF0FF321A609BE05F4BC4
:100E70001B68DB68DB683B613B695B68FB60BA69E8
:100E8000FB689A4203D25C4AFB6813608BE03B69C3
:100E90005B69BB603B699B683A69D2689A603B6951
:100EA000DB683A6992685A60BB685A683B690433E8
:100EB0009A4203D13B69DA68BB685A603B690022F9
:100EC0005A61BB681B685A1EBB681A603B699B6A03
:100ED000002B1ED03B699B6A7B603B69DB693A69EA
:100EE000126A9A603B691B6A3A69D2695A607B68E8
:100EF0005A683B6918339A4203D13B691A6A7B6886
:100F00005A603B6900229A627B681B685A1E7B68A4
:100F10001A603B69DB6A01229A40384B1B68134315
:100F2000364A13603B69DA6A354913469B0013441D
:100F30009B000B4404331B683B603B693A689A6032
:100F40003B689A683B69DA603B689B683A6904329F
:100F50005A603B691A1D3B689A603B69DA6A13461E
:100F60009B0013449B00264A1A443B695A613B6923
:100F7000DA6A234913469B0013449B000B441B6809
:100F8000591C1F4813469B0013449B0003441960DF
:100F90003B69DA6A1B4B1B68DB6A9A42FFF45DAF60
:100FA0000123FB6159E7174B1B68DA6A14491346A2
:100FB0009B0013449B000B441B68012B01D90123A8
:100FC000FB61114B1B68002B07D00123FB6104E080
:100FD0000E4B1B6801330D4A1360FB69184620371E
:100FE000BD4680BD5829002034290020E828002073
:100FF000EC28002048290020502900203829002012
:1010000048280020442800204429002040290020AE
:1010100080B485B000AF1C4B1B68002B03D01B4B6A
:1010200001221A602AE0194B00221A60184B1B6833
:101030007B607B68B3FA83F3FB70FB78C3F11F031B
:10104000FB60FA6813469B0013449B00114A13444B
:10105000BB60BB685B685A68BB685A60BB685A680B
:10106000BB6808339A4204D1BB685B685A68BB68A6
:101070005A60BB685B68DB68074A136000BF1437BF
:10108000BD4680BC704700BF58290020442900207D
:1010900038290020482800204428002080B582B04C
:1010A00000AF786000F052F8064B1B68012BF9D9AD
:1010B000054B4FF080521A60BFF34F8FBFF36F8F15
:1010C000F0E700BF4828002004ED00E080B582B0C2
:1010D00000AF00237B600CE07A6813469B0013444A
:1010E0009B00124A13441846FFF7DAF97B68013374
:1010F0007B607B68052BEFD90D48FFF7D1F90D48D0
:10110000FFF7CEF90C48FFF7CBF90C48FFF7C8F909
:101110000B48FFF7C5F90B4B054A1A600A4B054A05
:101120001A6000BF0837BD4680BD00BF48280020B8
:10113000C0280020D4280020F02800200429002006
:101140001C290020E8280020EC28002080B582B06F
:1011500000AF19E0FFF7EAFA104BDB68DB687B6051
:101160007B6804331846FFF7FEF90D4B1B68013B03
:101170000B4A13600B4B1B68013B0A4A1360FFF7D5
:10118000EFFA786800F010F8064B1B68002BE1D1ED
:1011900000BF00BF0837BD4680BD00BF0429002046
:1011A000302900201829002080B582B000AF786077
:1011B0007B681B6B1846FFF779F87868FFF776F8BD
:1011C00000BF0837BD4680BD80B400AF094B1B6827
:1011D0001B68002B04D1084B4FF0FF321A6005E06A
:1011E000044B1B68DB681B68034A136000BFBD46E5
:1011F00080BC7047E82800205029002080B586B0C8
:1012000000AF78603960364B1B687B61354B1B68DB
:1012100004331846FFF7A7F90346002B0BD1314BD7
:101220001B68DB6A012202FA03F3DA432E4B1B68C8
:1012300013402D4A13607B68B3F1FF3F24D13B6814
:10124000002B21D0294B5B683B61264B1B683A6918
:101250009A60244B1B683A699268DA60214B1A68DD
:101260003B699B6804325A601E4B1B681A1D3B6920
:101270009A601C4B1B681D4A5A611C4B1B6801334A
:101280001A4A136000BF26E07A697B681344FB604A
:10129000144B1B68FA685A60FA687B699A4209D253
:1012A000134B1A680F4B1B68043319461046FFF79F
:1012B00022F910E00F4B1A680A4B1B6804331946D9
:1012C0001046FFF718F90C4B1B68FA689A4202D2D5
:1012D000094AFB68136000BF1837BD4680BD00BFD8
:1012E0003429002044280020382900201C2900200F
:1012F000EC280020E8280020502900200C480D4947
:101300000D4A002302E0D458C4500433C4188C4260
:10131000F9D30A4A0A4C002301E013600432A242C6
:10132000FBD3FFF7B2FA00F00FF8FFF75DF9704753
:101330000000002008000020D01300080800002052
:101340005C290020FEE7000070B500260C4D0D4C16
:10135000641BA410A64209D100F022F800260A4D11
:101360000A4C641BA410A64205D170BD55F8043B7D
:1013700098470136EEE755F8043B98470136F2E707
:10138000C8130008C8130008C8130008CC130008CD
:1013900003460244934200D1704703F8011BF9E76A
:1013A000F8B500BFF8BC08BC9E467047F8B500BF52
:0813B000F8BC08BC9E46704722
:1013B8005461736B2031000049444C450000000023
:0413C80035010008E3
:0413CC001101000803
:0813D000AAAAAAAA0500000068
:04000005080012FDE0
:00000001FF
