:020000040800F2
:1000000000500020F90200089D020008A302000829
:10001000A9020008AF020008B502000800000000B5
:10002000000000000000000000000000BB0200080B
:10003000C702000800000000D3020008DF02000829
:100040004103000841030008410300084103000880
:100050004103000841030008410300084103000870
:100060004103000841030008410300084103000860
:100070004103000841030008410300084103000850
:100080004103000841030008410300084103000840
:100090004103000841030008410300084103000830
:1000A0004103000841030008410300084103000820
:1000B0004103000841030008410300084103000810
:1000C0004103000841030008410300084103000800
:1000D00041030008410300084103000841030008F0
:1000E000410300084103000841030008000000002C
:1000F0000000000000000000000000000000000000
:0C01000000000000000000005FF808F1A3
:1001100010B5054C237833B9044B13B10448AFF341
:1001200000800123237010BD0400002000000000A7
:10013000B003000808B5034B1BB103490348AFF3F4
:10014000008008BD0000000008000020B003000887
:100150004A0011D212F5001211D20DD56FF4787346
:10016000B3EB62520ED44FEAC12343F0004343EA9B
:10017000505323FA02F070474FF00000704750EAE6
:10018000013002D14FF0FF3070474FF00000704750
:1001900080B400AF054B10229A61054B4FF440121A
:1001A0005A6000BFBD4680BC704700BF00100240CF
:1001B0000010014080B400AF034B4FF40052DA60EE
:1001C00000BFBD4680BC70470010014080B400AF46
:1001D000044BDB68034A23F40053D36000BFBD46E1
:1001E00080BC70470010014090B585B000AFFFF7AC
:1001F000CFFF274B9B69264A43F004039361244BAE
:100200009B69234A43F001039361214B9B69204A78
:1002100043F4804393611F4BB0225A601D4B4FF44F
:1002200080625A601C4BDB681B4A43F40053D36066
:10023000194BDB68184A43F00803D360164BDB68A0
:10024000154A43F00403D3600FA3D3E90023C7E9A1
:100250000223114CD7E90201FFF77AFF0346A3609E
:100260000D4B5B68DBB27B6000BF0B4B1B6803F080
:100270002003002BF9D07B68772B02D1FFF79AFF80
:10028000EEE7FFF7A3FFEBE70000000000088A405D
:1002900000100240000801400038014080B400AF67
:1002A000FEE780B400AFFEE780B400AFFEE780B4A5
:1002B00000AFFEE780B400AFFEE780B400AF00BF40
:1002C000BD4680BC704780B400AF00BFBD4680BC57
:1002D000704780B400AF00BFBD4680BC704780B59A
:1002E00000AF00F02FF800BF80BD80B400AF00BFAA
:1002F000BD4680BC704700000C480D490D4A0023E4
:1003000002E0D458C4500433C4188C42F9D30A4ACA
:100310000A4C002301E013600432A242FBD3FFF732
:10032000E4FF00F021F8FFF75FFF704700000020B6
:1003300004000020D0030008040000202400002056
:10034000FEE7000080B400AF054B1B781A46054B52
:100350001B681344034A136000BFBD4680BC70474E
:10036000000000202000002070B500260C4D0D4C30
:10037000641BA410A64209D100F01AF800260A4D09
:100380000A4C641BA410A64205D170BD55F8043B6D
:1003900098470136EEE755F8043B98470136F2E7F7
:1003A000C8030008C8030008C8030008CC030008FD
:1003B000F8B500BFF8BC08BC9E467047F8B500BF52
:0803C000F8BC08BC9E46704722
:0403C80035010008F3
:0403CC001101000813
:0403D0000100000028
:04000005080002F9F4
:00000001FF
